S01600002E2E2F7034625F67616D657061642E737265634F
S11300000030002091040000F5040000F904000011
S113001000000000000000000000000000000000DC
S1130020000000000000000000000000FD040000CB
S113003000000000000000000105000005050000AC
S1130040090500000D05000011050000150500005C
S1130050F1040000F1040000F1040000F1040000C8
S1130060190500001D0500002105000025050000FC
S1130070290500002D05000031050000F1040000F1
S1130080F1040000F1040000F1040000F104000098
S1130090F1040000F1040000F10400003505000043
S11300A0F94C0000F1040000F1040000F104000028
S11300B0F1040000F1040000F1040000F104000068
S1130400FFFFFFFFFFFFFFFFFFFFFFFFFEFFFFFFF9
S1130410402292029A1A92467047C046174B002B0C
S113042000D1134B9D46FFF7F3FF00218B460F4687
S11304301348144A121A08F081F80E4B002B00D00E
S113044098470D4B002B00D0984700200021040052
S11304500D000D48002802D00C4800E000BF08F051
S113046075F82000290004F0B3FC08F053F8C046E6
S11304700000080000000000000000000030002020
S113048000F2FF1F10F8FF1F000000000000000032
S113049072B60E480E4901600A6882F308880D4856
S11304A080470D490D4A0E4B9B1A03DD043BC85887
S11304B0D050FBDC0B490C4A521A03DD0020885053
S11304C0043AFCDA62B609488047000008ED00E00F
S11304D000000000994F0000F490000000F0FF1F9E
S11304E044F1FF1F00F2FF1F10F8FF1F1D0400005E
S11304F01148004711480047114800471148004778
S11305001148004711480047114800471148004767
S11305101148004711480047114800471148004757
S11305201148004711480047114800471148004747
S11305301148004711480047F1040000F504000089
S1130540F9040000FD040000010500000505000099
S1130550F1040000F1040000F1040000F1040000C3
S1130560BD7D0000DD7D0000F1040000F104000009
S113057055240000592800007D280000F1040000E3
S11305800023C25C0133002AFBD1581E70470000CF
S1130590002243088B4274D303098B425FD3030ABE
S11305A08B4244D3030B8B4228D3030C8B420DD3D1
S11305B0FF22090212BA030C8B4202D3121209025F
S11305C065D0030B8B4219D300E0090AC30B8B429D
S11305D001D3CB03C01A5241830B8B4201D38B034B
S11305E0C01A5241430B8B4201D34B03C01A5241F0
S11305F0030B8B4201D30B03C01A5241C30A8B4233
S113060001D3CB02C01A5241830A8B4201D38B021D
S1130610C01A5241430A8B4201D34B02C01A5241C1
S1130620030A8B4201D30B02C01A5241CDD2C30933
S11306308B4201D3CB01C01A524183098B4201D3AF
S11306408B01C01A524143098B4201D34B01C01A9A
S1130650524103098B4201D30B01C01A5241C30812
S11306608B4201D3CB00C01A524183088B4201D381
S11306708B00C01A524143088B4201D34B00C01A6D
S11306805241411A00D20146524110467047FFE7D9
S113069001B5002000F0F0F802BDC0460029F7D0F3
S11306A076E7704703460B437FD4002243088B420E
S11306B074D303098B425FD3030A8B4244D3030BE5
S11306C08B4228D3030C8B420DD3FF22090212BAAA
S11306D0030C8B4202D31212090265D0030B8B4226
S11306E019D300E0090AC30B8B4201D3CB03C01A10
S11306F05241830B8B4201D38B03C01A5241430BEB
S11307008B4201D34B03C01A5241030B8B4201D3DA
S11307100B03C01A5241C30A8B4201D3CB02C01A45
S11307205241830A8B4201D38B02C01A5241430ABD
S11307308B4201D34B02C01A5241030A8B4201D3AC
S11307400B02C01A5241CDD2C3098B4201D3CB0153
S1130750C01A524183098B4201D38B01C01A524102
S113076043098B4201D34B01C01A524103098B4206
S113077001D30B01C01A5241C3088B4201D3CB00F1
S1130780C01A524183088B4201D38B00C01A5241D4
S113079043088B4201D34B00C01A5241411A00D284
S11307A001465241104670475DE0CA0F00D04942ED
S11307B0031000D34042534000229C4603098B425D
S11307C02DD3030A8B4212D3FC22890112BA030AE5
S11307D08B420CD3890192118B4208D38901921167
S11307E08B4204D389013AD0921100E08909C309EC
S11307F08B4201D3CB01C01A524183098B4201D3EE
S11308008B01C01A524143098B4201D34B01C01AD8
S1130810524103098B4201D30B01C01A5241C30850
S11308208B4201D3CB00C01A524183088B4201D3BF
S11308308B00C01A5241D9D243088B4201D34B00DA
S1130840C01A5241411A00D20146634652415B101C
S1130850104601D34042002B00D5494270476346FD
S11308605B1000D3404201B5002000F005F802BD42
S11308700029F8D016E770477047C0460448054B76
S113088010B5834203D0044B002B00D0984710BD11
S113089044F1FF1F44F1FF1F000000000648074910
S11308A0091A8B10C90FC91810B5491003D0044B8D
S11308B0002B00D0984710BD44F1FF1F44F1FF1FE7
S11308C00000000010B5074C2378002B09D1FFF776
S11308D0D5FF054B002B02D0044800E000BF0123E4
S11308E0237010BD00F2FF1F00000000CC90000038
S11308F0054B10B5002B03D00449054800E000BFA8
S1130900FFF7CCFF10BDC0460000000004F2FF1F3B
S1130910CC900000B0B586B000AFF86008001100BC
S11309207B600B243B19021C1A700A257B190A1CD4
S11309301A703B191B785A007B191B7813437B618F
S11309401023FB18180001F0C8FFFA687B692821FE
S11309501B01D3185B185A7940210A435A71FB686A
S11309605B685B0A5A023B191B785901F0235B0050
S11309700B401A437B191B781B0110210B401A43AF
S1130980F9687B6928201B01CB181B185B79DB06EF
S1130990DB0FDBB2DB00134304337A681A60BB6AF3
S11309A01B04214A1A40F9687B6928201B01CB18D3
S11309B01B185B791B07DB0FDBB29B011A43FB6837
S11309C05B685B0A59023B191B785801F0235B00F2
S11309D0034019437B191B781B0110200340194362
S11309E0F8687B6928241B01C3181B195B79DB0693
S11309F0DB0FDBB2DB000B4388210A431A603B693F
S1130A00180001F078FFFB689B6894229B5CDAB2C3
S1130A10FB689B6820218A43D1B294229954002315
S1130A201800BD4606B0B0BD0000FF0380B584B019
S1130A3002AF78607B680C331A007B682D215B5C05
S1130A40DB06DB0FDBB2DB00D2187B681A627B6843
S1130A5000229A627B6808225A627B682C229B18C7
S1130A605A7820210A435A707B682C229B185A78A2
S1130A7008218A435A707B681B6A786808220092AE
S1130A8000220021FFF746FFC046BD4602B080BDEC
S1130A9080B584B000AF78607B689B688822FF21B2
S1130AA099547B689B6894229B5CDAB27B689B6850
S1130AB002210A43D1B2942299547B689B689822FC
S1130AC0002199540F23FB1800221A705BE07B6805
S1130AD05B685B0A5A020F203B181B785901F0230C
S1130AE05B000B40134300221A607B685B685B0A5F
S1130AF05A023B181B785901F0235B000B40134347
S1130B000822134300221A607B685B685B0A5A025E
S1130B103B181B785901F0235B000B401343102250
S1130B20134300221A607B685B685B0A5A023B1815
S1130B301B785901F0235B000B4013431822134325
S1130B4000221A603B181B785B007A681B01D318DB
S1130B502C3300221A603B181B785B0001221343DC
S1130B607A681B01D3182C3300221A607B689B68B7
S1130B703A181278303292000021D1543B181A7876
S1130B803B1801321A700F23FB181B78032B9ED9D4
S1130B907B68A022002199547B689B6894229B5C0B
S1130BA0DAB27B689B6802218A43D1B294229954B9
S1130BB07B689B688C22FF2199540E217B18892223
S1130BC01A707B689B687A18842112785A547B685F
S1130BD0A122002199547B689B6894229B5CDAB221
S1130BE07B689B6820218A43D1B294229954C046E1
S1130BF0BD4604B080BD0000B0B584B000AF7860DD
S1130C0039600E203B183A6812881A803B689A783B
S1130C100D243B190F210A401A703B689A780C2561
S1130C207B19D2091A703B191B78DB18D9B20B2334
S1130C30FB187A1912780A431A703B68DB78012B87
S1130C4009D13B181A888023DB009A421ED33B1833
S1130C504C4A1A801AE00E22BB181B88402B02D97A
S1130C60BB1840221A807B689B680D203A181278C2
S1130C7030329200D35CD9B27B689B683A18127800
S1130C8001200143C9B230329200D1540B243B19E4
S1130C901B787A6828211B01D3185B185A794021E4
S1130CA08A435A713B191B780E22BA18128892058E
S1130CB0920D92B2796828201B01CB181B1892055B
S1130CC0900D9A88920A9202111C021C0A439A807F
S1130CD03B191B787A6828211B01D3185B185A79B1
S1130CE008218A435A713B191B787A6828211B0111
S1130CF0D3185B185A7904218A435A713B681A79CC
S1130D003B191B78111C01220A40D2B279682820B1
S1130D101B01CB181B18D0015A797F210A40111CE2
S1130D20021C0A435A717B689B680D22BA18127818
S1130D3030329200D35CD8B20C23FB181B78012B01
S1130D4001D1042200E008227B689B680D24391934
S1130D5009780243D0B20A0030329200011CD15407
S1130D603B191B78002B08D10C23FB181B78002B94
S1130D7003D17B681800FFF759FE00231800BD4615
S1130D8004B0B0BDFF030000B0B584B000AF78601C
S1130D900A00FB1C1A700F243B19FA1C12780F214D
S1130DA00A401A700E203B18FA1C1278D2091A70E5
S1130DB03B191B78DB18D9B20D257B193A18127828
S1130DC00A431A70FB1C1A787B681100180000F0A3
S1130DD098FE7B689B683A191278303292000021A1
S1130DE0D1547B191B787A6828211B01D3185B180E
S1130DF09A88920A92029A8000231800BD4604B091
S1130E00B0BDF0B585B000AF78600A00FB1C1A7065
S1130E100F257B19FA1C12780F210A401A700E262E
S1130E20BB19FA1C1278D2091A707B191B78DB18CB
S1130E30D9B20D243B19BA1912780A431A70FB1C53
S1130E401A787B681100180000F05BFE3B191B78D0
S1130E507A6828211B01D3185B185A7904210A43A4
S1130E605A713B191B787A6828211B01D3185B1827
S1130E709B889B059B0D9BB21A047B685B685B0A8D
S1130E8059027B191B785801F0235B000340194376
S1130E90BB191B781B011020034019433B191B7815
S1130EA0786828241B01C3181B195B79DB06DB0F48
S1130EB0DBB2DB000B438C210A431A607B689B681E
S1130EC094229B5CDAB27B689B6820218A43D1B26E
S1130ED09422995400231800BD4605B0F0BDB0B566
S1130EE084B000AF78600A00FB1C1A700E203B1817
S1130EF0FA1C12780F210A401A700D243B19FA1CAF
S1130F001278D2091A703B181B78DB18D9B20C205E
S1130F103B183A1912780A431A703B181B787A68FE
S1130F2028211B01D3185B185A7904218A435A716A
S1130F303B181B787A6828211B01D3185B185A794F
S1130F4008218A435A710F23FB1800221A704CE0BF
S1130F507B685B685B0A5A020E203B181B785901B8
S1130F60F0235B000B401A430D243B191B781B0133
S1130F7010210B401A430F257B191B78DB00082135
S1130F800B4013431B68BB60BB680422134026D08C
S1130F900C23FB181B787A6828211B01D3185B18D3
S1130FA09B889B059B0D9BB21A047B685B685B0A5C
S1130FB059023B181B785801F0235B000340194386
S1130FC03B191B781B011020034019437B191B7824
S1130FD0DB00082003400B4308210A431A600F2159
S1130FE07B181A787B1801321A700F23FB181B78B0
S1130FF0012BADD97B689B680E243A1912783032E4
S11310009200D35CD9B27B689B683A1912780220AB
S11310108143C9B230329200D1543B191B78002B62
S113102008D10D23FB181B78002B03D17B68180013
S1131030FFF7FCFC7B689B6894229B5CDAB27B68BC
S11310409B6820218A43D1B294229954002318002A
S1131050BD4604B0B0BDB0B592B002AF78607B6855
S11310609A6837203B189021525C1A7036243B1939
S11310703A18127812091A703B181B78DB08DAB296
S113108035257B1901210A401A703B181B789B08EF
S1131090DAB234203B1801210A401A707B689B683D
S11310A08022082199547B685B685B0A5A023B19C9
S11310B01B785901F0235B000B401A437B191B7802
S11310C01B0110210B401A433B181B78DB0008213D
S11310D00B4013431B683B637B685B685B0A5A02E3
S11310E03B191B785901F0235B000B401A437B1911
S11310F01B781B0110210B401A433B181B78DB00A3
S113110008210B40134304331B68FB623B6B1B0C2D
S11311109B059B0DBB623B6B9B08DBB21A000F2344
S113112013400D2B04D13F23FB1801221A7003E056
S11311303F23FB1800221A703623FB181B78DB1898
S1131140D9B227203B183522BA1812780A431A70EC
S11311503B181B787A6828211B01D3185B185B792C
S11311605B06DB0FDBB2002B00D16AE23F23FB18E6
S11311701B78002B05D07B683422BA18A32112787F
S11311805A543523FB181B78012B00D0FBE027248D
S11311903B191B787A681B01D318283319683B194B
S11311A01B78BA6A8A1879681B01CB1828331A602D
S11311B03B191B787A6802331B01D31804331A686D
S11311C03B191B7879681B01CB1828331B68D31A89
S11311D0BB613B191B787A6828211B01D3185B1863
S11311E05B791B07DB0FDAB23B191B7801214A40FC
S11311F0D2B2796828201B01CB181B1801210A40A0
S1131200D0005A7908218A43111C021C0A435A71DE
S11312103B191B787A6828211B01D3185B185B796A
S1131220DB06DB0FDAB23B191B7801214A40D2B24C
S1131230796828201B01CB181B1801210A401001D2
S11312405A7910218A43111C021C0A435A71BB6942
S1131250002B0FD03B191B787A6828211B01D31867
S11312605B189B889B059B0D9BB21A00BB6A93423B
S113127000D375E027243B191B787A681B01D31827
S113128028331A6808217B185A603B191A787B683E
S113129002321201D2587B181A603B191B787A6803
S11312A028211B01D3185B185A7940218A435A71AB
S11312B0BB6A002B00D19DE13B191B787A68282179
S11312C01B01D3185B189B889B059B0D9BB21A00CE
S11312D0BB6A11001800FFF7E1F90B1E00D089E189
S11312E036203B181B78002B20D17B68A3229B5C03
S11312F0DB0008337A68D31804337B617B69DB88AD
S113130019003B191B787A6802331B01D318043384
S11313101B68994200D86DE13B181978786800235E
S1131320009300230122FFF7F5FA8BE12723FB1832
S11313301B787A6828211B01D3185B185B791B067C
S1131340DB0FDBB2002B00D154E13623FB181978F4
S113135078680023009300230122FFF7DBFA71E190
S11313603623FB181B78802252421343D9B2272319
S1131370FB181A787B6802321201D258BB6978686C
S113138000F065FA5EE13623FB181B78002B0AD1C6
S1131390BB6A002B07D108217B1800225A607B18F6
S11313A000221A6027E127203B181B787A6828213D
S11313B01B01D3185B185B799B06DB0FDBB2002B98
S11313C045D17B685B685B0A5A023623FB181B789D
S11313D05901F0235B000B401A4304003B181B78AF
S11313E0796828201B01CB181B185B79DB06DB0FFF
S11313F0DBB2DB00134304331B683B623B191A78EE
S11314007B6802321201D2583B191B7879681B01A0
S1131410CB1828331B68D318FB613A6AFB699A42DC
S113142011D00023BB630AE03A6ABB6BD218F96996
S1131430BB6BCB1812781A70BB6B0133BB63BA6BEE
S1131440BB6A9A42F0D37B68A022002199542720DA
S11314503B181B787A681B01D318283319683B188A
S11314601B78BA6A8A1879681B01CB1828331A606A
S113147001007B181B787A6802331B01D3180433EC
S11314801A687B181B7879681B01CB1828331B68F2
S1131490D31ABB613623FB181B78002B13D13F23CF
S11314A0FB181B78002B0ED07B682C229B185A78D3
S11314B008210A435A707B683C229B185A780821F9
S11314C00A435A701FE027203B181B787A682821AA
S11314D01B01D3185B185B791B07DB0FDAB23B18CF
S11314E01B7801214A40D2B2796828201B01CB180D
S11314F01B1801210A40D0005A7908218A43111C83
S1131500021C0A435A7127243B191B787A68282144
S11315101B01D3185B185B79DB06DB0FDAB23B19CE
S11315201B7801214A40D2B2796828201B01CB18CC
S11315301B1801210A4010015A7910218A43111CF9
S1131540021C0A435A713B191B787A6802331B0147
S1131550D31804331B68002B11D0BB69002B0ED0A9
S11315603B191B787A6828211B01D3185B189B88C8
S11315709B059B0D9BB21A00BB6A93422AD2272378
S1131580FB181B787A681B01D31828331A680821C2
S11315907B185A603F23FB181B78002B03D07B1861
S11315A0FA6A1A6009E02723FB181A787B6802326A
S11315B01201D2580823FB181A602723FB181B7842
S11315C07A6828211B01D3185B185A7940218A4371
S11315D05A7110E02723FB181A787B680232120133
S11315E0D258BC693623FB1819787868230000F0B8
S11315F0CAF927E0C04608217B183F22BA1812789E
S11316005A723523FB181B78DB01DAB23623FB1838
S11316101B781343DAB27B181A727B681B687A183A
S11316201100180004F0C4FB7B689B6894229B5C47
S1131630DAB27B689B6820218A43D1B29422995400
S113164000E0C046BD4610B0B0BD80B586B000AF66
S113165078607B68A122012199547B689B68802271
S1131660012199540C217B1800221A607B18102246
S11316701A727B1800225A607B1800225A727B6807
S11316801B687A181100180004F092FBC046BD468E
S113169006B080BD80B582B000AF786004E07B689E
S11316A09B688022802199547B689B6880229B5C84
S11316B0DBB25BB2002BF2DB7B683D229B5C042235
S11316C01340DBB2002B07D17B682D229B5C0422E4
S11316D01340DBB2002B09D07B6880211800FFF790
S11316E0FEFB7B6800211800FFF7F9FBC046BD46EE
S11316F002B080BD90B587B000AFB9607A600F21A9
S11317007B18021C1A70324B3B617B181B78002B30
S113171003D17B181B78002B01D0062353E00F2440
S11317203B191B78A4225A432A4BD3187B617B694B
S11317303A19A22112785A543B191B789B0018229B
S11317409B18DB19083B1B681A007B699A603B19DC
S11317501B789A01204BD2187B69DA617B699B68FC
S11317608022FF2199547B6900220121180000F096
S113177019FA3B191B785A02184BD2187B695A6024
S11317807B695B681A0A7B699B68D1B29C22995475
S11317907B695B681A0C7B699B68D1B2B02299544F
S11317A07B695B681A0E7B699B68D1B2B422995439
S11317B07B691800FFF76CF97B687A691A607B69AA
S11317C0BA681A6000231800BD4607B090BDC04631
S11317D00020074000F6FF1FA4F6FF1F00F4FF1FC0
S11317E080B584B000AF78607B68FB607B68002BB9
S11317F001D1032327E0FB689B688022FF219954D1
S1131800FB689B6884229B5CFB689B6884220021A4
S11318109954FB689B68982200219954FB689B6843
S1131820942200219954FB689A6880235B00D35C5E
S1131830D9B2FB689A6840235B420B43D9B2802338
S11318405B00D15400231800BD4604B080BD90B5A0
S11318508BB002AFF8607A603B600B203B180A1C27
S11318601A70FB68BB613B181B785B001E22134097
S1131870012213437B611F23FB1801221A70BA69EA
S11318807B6928211B01D3185B185B795B06DB0F8E
S1131890DBB2002B1ED1BA697B691B01D318283334
S11318A000221A60BB697A69023212017968D15048
S11318B0BA697B6902331B01D31804333A681A608E
S11318C0BA697B6928211B01D3185B185A79202136
S11318D00A435A71BA697B6928211B01D3185B1822
S11318E09B889B059B0D9BB21A003B6893420AD9C7
S11318F0BA697B6928211B01D3185B189B889B0557
S11319009B0D9BB23B60BB69A1229B5C002B1ED14B
S11319100B23FB181B780F221340D9B2BB697A69D9
S113192002321201D3581800BA697B691B01D3181B
S113193028331B68C3181A001F23FC18B8693B68B6
S1131940009313000122FEF7E5FF03002370BA6938
S11319507B691B01D31828331B68002B0CD13B680F
S1131960002B09D10B23FB181B780F22134003D142
S1131970BB691800FFF75AF81F23FB181B781800DF
S1131980BD4609B090BD90B58BB002AFF8607A60E7
S11319903B600B203B180A1C1A70FB68BB610100FA
S11319A07B181B785B001E2213407B611F23FB18EE
S11319B001221A703B68002B13D17B181B780F226D
S11319C013400ED1BA697B6928211B01D3185B1817
S11319D05A7940218A435A71BB691800FFF726F8E7
S11319E088E0BA697B6928211B01D3185B185B79ED
S11319F05B06DB0FDBB2002B14D1BA697B691B01D8
S1131A00D318283300221A60BB697A6902321201A2
S1131A107968D150BA697B6902331B01D318043346
S1131A203A681A60BA697B6928211B01D3185B18CC
S1131A305A7920210A435A71BA697B6928211B010A
S1131A40D3185B189B889B059B0D9BB21A003B68BF
S1131A5093420AD9BA697B6928211B01D3185B1800
S1131A609B889B059B0D9BB23B60BA697B691B01FC
S1131A70D31828331A687B68D3187B60BB69DB6989
S1131A80002B20D0BB69A0229B5C002B1BD13B68A0
S1131A90402B18D83B680322134003D17B680322F0
S1131AA0134010D0BA697B6928211B01D3185B1835
S1131AB05A7920218A435A71BB69DB697B60BB690F
S1131AC0A02201219954BB69A1229B5C002B11D156
S1131AD00B23FB181B780F221340D9B21F23FC18C9
S1131AE07A68B8693B68009313000022FEF712FF7E
S1131AF0030023701F23FB181B781800BD4609B090
S1131B0090BD90B589B000AF78600A00FB1C1A70D4
S1131B107B68FB61FB1C1B78DB18DBB21E221340C5
S1131B20D9B2FB1C1B78DB09DAB21B243B190A432C
S1131B301A703B191B78FA6928211B01D3185B180A
S1131B405B795B06DB0FDBB2002B26D00C203B1845
S1131B50012252425A6021007B181A78FB69023232
S1131B601201D2583B181A603B18FA1C12781A72E8
S1131B703B1800225A727B181B78FA6928211B0132
S1131B80D3185B185A7940218A435A71FB691B6840
S1131B903A181100180004F00BF900231800BD4690
S1131BA009B090BD90B58BB000AFF8607A600B239C
S1131BB0FB180A1C1A70FB683B622723FB180122DE
S1131BC01A70FB68002B01D1032376E10B23FB1869
S1131BD01B78122B00D158E100DD58E10F2B00D106
S1131BE046E100DD53E10E2B00D116E100DD4EE1AC
S1131BF0092B00D14DE100DD49E1082B00D1FCE0C7
S1131C0000DD44E1072B00D1CFE000DD3FE1062BEE
S1131C1000D1BCE000DD3AE1052B00D1A5E000DDF8
S1131C2035E1042B00D18EE000DD30E1032B00D13F
S1131C3077E000DD2BE1022B64D000DD27E1002BEF
S1131C4002D0012B38D022E13B6A9A6880235B00E2
S1131C500021D1543B6A9B681B7FDBB21A0004232A
S1131C6013400AD03B6A9B681B7FDAB23B6A9B68CD
S1131C70802149420A43D2B21A773B6A9A68842384
S1131C805B00D35CD9B23B6A9A6810230B43D9B288
S1131C9084235B00D1543B6A9B6894229B5CDAB238
S1131CA03B6A9B6801210A43D1B2942299542723A9
S1131CB0FB1800221A70FDE03B6A9B681B7FDBB2B5
S1131CC01A000423134009D03B6A9B681B7FDAB2D5
S1131CD03B6A9B687F210A40D2B21A773B6A9A68B2
S1131CE084235B00D35CD9B23B6A9A68102399437E
S1131CF00B00D9B284235B00D1542723FB180022A4
S1131D001A70D7E07B68002B00D1C4E02723FC18AD
S1131D107A683B6A11001800FEF76EFF0300237017
S1131D20B9E07B68002B00D1B7E07B68FB61FB69FD
S1131D301A782723FC183B6A11001800FFF724F8CF
S1131D4003002370A9E07B68002B00D1A7E07B6827
S1131D50FB61FB691A782723FC183B6A1100180001
S1131D60FFF74FF80300237099E07B68002B00D144
S1131D7097E07B68FB61FB691A782723FC183B6AB0
S1131D8011001800FFF7ABF80300237089E07B68AB
S1131D90002B00D187E07B687B617B6901221A807C
S1131DA02723FB1800221A707DE07B68002B00D1EA
S1131DB07BE07B68BB61BB691B781A000C23134072
S1131DC000D072E0BB691B785B001E221340BA6925
S1131DD01278D209D2B213433A6A28211B01D318CC
S1131DE05B185B795B07DB0FDBB21A00BB695A80B7
S1131DF02723FB1800221A7057E07B68002B56D06B
S1131E007B68FB613B6A9B68FA6911789822995454
S1131E102723FB1800221A7049E02623FB1800220E
S1131E201A7017E026243B191B7880225242134370
S1131E30DAB23B6A11001800FEF7A6FF3B191A78C4
S1131E403B6A11001800FEF79FFF3B191A783B19F3
S1131E5001321A702623FB181B78032BE2D93B6A44
S1131E601800FEF715FE2723FB1800221A7021E044
S1131E707B68002B1DD07B68FB61FB6900221A7014
S1131E802723FB1800221A7013E0C04612E0C04654
S1131E9010E0C0460EE0C0460CE0C0460AE0C04672
S1131EA008E0C04606E0C04604E0C04602E0C04682
S1131EB000E0C0462723FB181B781800BD460BB072
S1131EC090BD80B586B000AF78607B687B617B682D
S1131ED0002B27D07B691B683B613B699A680F2004
S1131EE03B188021525C1A703B181B78082213405F
S1131EF003D03B691800FFF7AEF80F23FB181B78DB
S1131F000122134003D03B691800FFF79EFB0F2307
S1131F10FB181B785BB2002B05DA3B691800FFF74E
S1131F20B9FB00E0C046BD4606B080BD80B584B0B4
S1131F3000AF78607B681B0C084A94466344FB60DE
S1131F40FB6819687B681B041B0C01229A40FB6820
S1131F500A431A60C046BD4604B080BD0070044008
S1131F6080B584B000AF78600023FB6006E00D4AC2
S1131F707B68934206D0FB680133FB60FB68002B4F
S1131F80F5D000E0C046FB68002B05D0064B074A9D
S1131F900748902105F05CF8FB681800BD4604B0C2
S1131FA080BDC04600A0064098850000408D00001A
S1131FB0BC850000B0B58CB000AFF860B9607A6041
S1131FC0BB68002B05D18F4B8F4A9048D72105F071
S1131FD03FF8BB681B68002B05D18D4B8A4A8B48A0
S1131FE0D82105F035F82C23FB1800221A80002391
S1131FF07B62BB681B68BB6104233B625AE0BB681D
S11320001B683A6A534319007868FEF7C1FA030063
S11320101A002A217B181A800A00BB181B88002B7F
S113202002D1BB1801221A802A257B191B883A6A1F
S1132030534319007868FEF7ABFA03007B61BB6871
S11320401B687A69D31AFB61BB681C687B191B88FF
S113205001331A003B6A534319007868FEF798FA73
S11320600300E31AFA699A4213D9BB681C687B1906
S11320701B8801331A003B6A534319007868FEF742
S113208087FA0300E31AFB617B191A887B19013272
S11320901A80FA69BB699A4209D8FB69BB613B6A39
S11320A07B622C23FB182A22BA1812881A803B6AF6
S11320B001333B623B6A202BA1D9BB681B686421B6
S11320C01800FEF765FA03001A0013005B009B1862
S11320D0BA699A4201D94F4B90E0FB681800FFF7A8
S11320E03FFF4D4B1800FFF721FFFB68DB78DBB2A5
S11320F00C229343DAB2FB68DA707B6A032B0AD9A9
S11321007B6A072B07D8FB68DB7ADBB20222134316
S1132110DAB2FB68DA72FB689B7ADBB21F22934364
S1132120DAB27B6ADBB2013BDBB21343DAB2FB689F
S11321309A72FB689B7ADBB21F229343DAB22C219A
S11321407B181B881B0A9BB2DBB21343DAB2FB6811
S11321501A707B181B88DAB2FB685A70FB689B788C
S1132160DAB22F203B1813218A431A70BB681B79FB
S1132170002B09D0BB681A793B181B781343DAB2D9
S11321803B1810210A431A70FB682F203A18127862
S11321909A70FB681B78DBB220229343DAB2FB68A7
S11321A01A70FB681B78DAB2BB685B795B01DBB23F
S11321B020210B40DBB21343DAB2FB681A703B18E0
S11321C0FA68D2781A70BB689B79002B05D03B184B
S11321D03A18127808210A431A70BB68DB79002B7D
S11321E006D02F22BB18BA18127804210A431A7099
S11321F0FB682F22BA181278DA7000231800BD4643
S11322000CB0B0BD2C860000548D0000BC850000CD
S113221034860000B50400000A00341080B582B092
S113222000AF78607B68002B06D10D4B0D4A562118
S1132230FF310D4804F00CFF7B68E12252021A6062
S11322407B6800221A717B6800225A717B68002225
S11322509A717B680022DA71C046BD4602B080BD27
S11322602C860000608D0000BC85000080B584B021
S113227000AF78607B681B79DBB21A007B685B79FE
S1132280DBB21B021343FB60FB681800BD4604B0BD
S113229080BD000080B584B000AF786039600B2148
S11322A07B1800221A707B181B78DBB20133DAB278
S11322B07B181A703A6880231B02134006D07B688F
S11322C080225A713B68154A13403B603A68802368
S11322D0DB01134006D07B6840225A713B68104AE8
S11322E013403B603B681F2213400AD03B68DBB2BB
S11322F01F221340DAB27B681A713B681F22934392
S11323003B603B68002B02D0064BFB6001E00023DE
S1132310FB60FB681800BD4604B080BDFF7FFFFF73
S1132320FFBFFFFFB404000080B584B000AFF860C5
S1132330B9607A60BB68002B12D10E4B0E4A0F496C
S11323400F4804F085FEC046FB681B79DBB25BB224
S1132350002BF9DABB685A1CBA601A78FB68DA7188
S11323607B685A1E7A60002BEDD1C046C046BD463C
S113237004B080BD24860000788D000009020000AE
S1132380BC85000080B586B000AFF860B9607A60A3
S1132390BB68002B47D1294B294A8621890029484B
S11323A004F056FEFB681800FFF760FF03007B6132
S11323B07B690822134007D0FB6808211800FFF747
S11323C069FF9723DB0034E07B690422134006D0C5
S11323D0FB6804211800FFF75DFF1B4B29E07B69B4
S11323E00222134006D0FB6802211800FFF752FFB7
S11323F0164B1EE07B690122134006D0FB680121C5
S11324001800FFF747FF124B13E0FB681B79DBB2A0
S11324101A0020231340C5D0BB685A1CBA60FA685E
S1132420D279D2B21A707B685A1E7A60002BECD132
S113243000231800BD4606B080BDC04624860000B7
S11324408C8D0000BC850000B9040000BA040000B3
S1132450BB04000080B500AF044B1A68044B1B6832
S1132460044819009047C046BD4680BDE8F6FF1FEA
S1132470E4F6FF1F00A0064080B584B000AF78608A
S11324807B681B0C084A94466344FB60FB6819682C
S11324907B681B041B0C01229A40FB680A431A60E8
S11324A0C046BD4604B080BD0070044080B584B011
S11324B000AF78600323BB600023FB6009E00F4B8F
S11324C0FA689200D3587A689A4207D0FB680133BD
S11324D0FB60FA68BB689A42F1D300E0C046FA6830
S11324E0BB689A4205D3064B064A0748A92104F063
S11324F0AFFDFB681800BD4604B080BDA08D000090
S113250094860000B88D0000B0860000B0B586B097
S113251000AFF860B9607A60BB68002B05D1714BDD
S1132520714A7248D42104F093FDBB681B68002BE8
S113253005D16F4B6C4A6D48D52104F089FD1624F2
S11325403B1900221A801523FB1800221A7000235D
S11325503B61BB681B681B0119007868FEF718F81B
S113256003001A003B191A803B191B88002B02D167
S11325703B1901221A8016257B191B881B0119009F
S11325807868FEF705F803001A00BB681B68D31AC5
S11325903B61BB681C687B191B8801331B01190054
S11325A07868FDF7F5FF0300E31A3A699A4211D9F6
S11325B0BB681C687B191B8801331B0119007868F0
S11325C0FDF7E6FF0300E31A3B617B191A887B19C8
S11325D001321A80BB681B6864211800FDF7D8FF1C
S11325E003001A0013005B009B183A699A4201D950
S11325F0404B72E0FB681800FFF758FF02003E4BA7
S11326009200D3581800FFF737FFFB68DB78DBB282
S11326100C229343DAB2FB68DA70FB681B78DBB2F6
S11326201F229343DAB216217B181B881B0A9BB224
S1132630DBB21343DAB2FB681A707B181B88DAB278
S1132640FB685A70FB689B78DAB215203B1813219B
S11326508A431A70BB681B79002B09D0BB681A79AE
S11326603B181B781343DAB23B1810210A431A7043
S1132670FB6815203A1812789A70FB681B78DBB255
S113268020229343DAB2BB685B795B01DBB2202181
S11326900B40DBB21343DAB2FB681A703B18FA68DA
S11326A0D2781A70BB689B79002B05D03B183A1876
S11326B0127808210A431A70BB68DB79002B06D014
S11326C01522BB18BA18127804210A431A70FB6841
S11326D01522BA181278DA7000231800BD4606B025
S11326E0B0BDC04618870000CC8D0000B086000045
S11326F020870000F5030000AC8D000080B582B097
S113270000AF78607B68002B06D10D4B0D4A5E212B
S1132710FF310D4804F09CFC7B68E12252021A60F0
S11327207B6800221A717B6800225A717B68002240
S11327309A717B680022DA71C046BD4602B080BD42
S113274018870000D88D0000B086000080B584B0E2
S113275000AF78607B681B79DBB21A007B685B7919
S1132760DBB21B021343FB60FB681800BD4604B0D8
S113277080BD80B584B000AFF860B9607A600CE0C9
S1132780C046FB681B79DBB25BB2002BF9DABB688D
S11327905A1CBA601A78FB68DA717B685A1E7A6030
S11327A0002BEDD1C046C046BD4604B080BD00003C
S11327B080B586B000AFF860B9607A60BB68002B62
S11327C033D11F4B1F4A8F2189001F4804F040FC5E
S11327D0FB681800FFF7BAFF03007B617B690822DE
S11327E0134001D0194B26E07B690422134001D029
S11327F0174B20E07B690222134001D0154B1AE0ED
S11328007B690122134002D0FD239B0013E0FB6887
S11328101B79DBB21A0020231340D9D0BB685A1CA1
S1132820BA60FA68D279D2B21A707B685A1E7A609A
S1132830002BECD100231800BD4606B080BDC04675
S113284048870000F08D0000B0860000F10300000E
S1132850F2030000F303000080B500AF044B1A68D4
S1132860044B5B68044819009047C046BD4680BDD0
S1132870F8F6FF1FECF6FF1F00B0064080B500AF6E
S1132880044B1A68044B9B68044819009047C046DF
S1132890BD4680BDF8F6FF1FECF6FF1F00C00640E2
S11328A080B582B000AFEFF310833B603B687B6080
S11328B072B6C0467B681800BD4602B080BD80B5C4
S11328C084B000AF78607B68FB60FB6883F310889A
S11328D0C046C046BD4604B080BD80B582B000AFDE
S11328E07860FFF7DDFF02007B681A6072B6C046AD
S11328F0BD4602B080BD80B582B000AF78607B6811
S11329001800FFF7DCFFC046BD4602B080BDB0B57D
S113291086B000AFF860B9607A603B6017257B1918
S113292005221A70FB681B6816243A190621180040
S113293003F09DFC2200BB181B78012B06D0BB18AA
S11329401B78002B02D07B191B7864E0BB681B78D2
S11329501A001F2313401AD1FB681868FB68103350
S11329601722BC181A00042103F081FC0300237011
S1132970FB681B8A032213409AB2FB681A82FB6825
S11329801A8AFB681A823B6802221A603BE0BB6821
S11329901B781A001F231340012B0AD11723FB189D
S11329A000221A70FB6800221A823B6802221A6015
S11329B029E0BB681B781A001F231340022B22D185
S11329C0BB689B88DAB210217B181A707B1800222E
S11329D05A80FB681B681722BC180D007A18052161
S11329E0180003F044FC030023707B195B88032266
S11329F013409AB2FB681A82FB681A8AFB681A822F
S1132A003B6802221A60FB6810331A007B681A6064
S1132A101723FB181B781800BD4606B0B0BDB0B52F
S1132A2086B000AFF860B9607A603B6017257B1907
S1132A3005221A701523FB1800221A70FB681B6804
S1132A4016243A190621180003F011FC2200BB18C1
S1132A501B78012B06D0BB181B78002B02D07B19E6
S1132A601B7868E0BB685B78032B03D11523FB1844
S1132A7001221A70BB681B781A001F23134010D15F
S1132A80BB685B88012B53D1FB681B681722BC18F9
S1132A901522BA181421180000F030FF0300237027
S1132AA046E0BB681B781A001F231340022B3FD15A
S1132AB0BB685B88002B3BD1BB689B881A000F2343
S1132AC0134017D11523FB181B78002B09D0FB6882
S1132AD01A68BB689B88DBB21900100003F093FBF3
S1132AE008E0FB681A68BB689B88DBB21900100019
S1132AF003F0A3FB1523FB181B78002B0CD0FB68F9
S1132B001868BB6804331722BC181A00052100F0AA
S1132B105BFE030023700BE0FB681868BB6804339A
S1132B201722BC181A00062100F04EFE0300237081
S1132B301723FB181B781800BD4606B0B0BDB0B50E
S1132B4086B000AFF860B9607A603B6017257B19E6
S1132B5005221A70FB681B6816243A19062118000E
S1132B6003F085FB2200BB181B78032B0ED0BB1887
S1132B701B78012B0AD0BB181B78022B06D0BB187C
S1132B801B78002B02D07B191B7836E016217B18AA
S1132B901B78032B10D0BB685B88DAB27B181A70E1
S1132BA0FB681B681722BC187A180721180003F069
S1132BB0DEFB030023701DE0FB681B6817257C19EE
S1132BC000220721180003F0D2FB03002370290020
S1132BD07B181B78002B0DD116203B1801221A708C
S1132BE0FB681B687C183A180621180003F0BFFB29
S1132BF0030023701723FB181B781800BD4606B08A
S1132C00B0BDB0B58AB000AFF860B9607A603B601F
S1132C1027257B1905221A70BB685B881B0A9AB2A8
S1132C202623FB181A70BB685A882523FB181A70D0
S1132C30FB681B6817243A190621180003F017FBD8
S1132C402200BB181B78012B0AD0BB181B78002B61
S1132C5006D0BB181B78022B02D07B191B789DE091
S1132C60BB68DB881A0018217B185A602623FB18DE
S1132C701B78012B0BD1FB681B682722BC187A1820
S1132C800B21180000F03AFE030023707AE026239B
S1132C90FB181B78022B11D118217B182522BA1896
S1132CA012781A72FB681B682722BC187A180C2148
S1132CB0180000F023FE0300237063E02623FB18B2
S1132CC01B78032B15D118217B182522BA181278EA
S1132CD09A72BB689A887B181A81FB681B68272242
S1132CE0BC187A180D21180000F008FE03002370A8
S1132CF048E02623FB181B78212B11D1BB689B8845
S1132D00DAB218217B181A72FB681B682722BC18D8
S1132D107A180E21180000F0F1FD0300237031E051
S1132D202623FB181B78222B11D1BB689B88DAB2AF
S1132D3018217B181A72FB681B682722BC187A18A2
S1132D400F21180000F0DAFD030023701AE0262397
S1132D50FB181B78232B15D118217B182522BA18B0
S1132D6012781A72BB689B88DAB27B185A72FB68B5
S1132D701B682722BC187A181021180000F0BEFD29
S1132D800300237018217B181A687B681A607B186B
S1132D905A683B681A602723FB181B781800BD4645
S1132DA00AB0B0BD90B587B000AFF860B9607A6082
S1132DB03B60FB681B6817243A190621180003F0CE
S1132DC056FA2200BB181B78012B05D0BB181B78C0
S1132DD0002B01D0052310E03B6801221A60FB6838
S1132DE010331A007B681A60FB681868FB6810339C
S1132DF01A00152100F082FD03001800BD4607B03B
S1132E0090BD90B587B000AFF860B9607A603B6060
S1132E10FB681B6817243A190621180003F027FAE7
S1132E202200BB181B78012B05D0BB181B78002B84
S1132E3001D005232BE017217B1800221A70FB68B0
S1132E401B680C007A180621180003F090FABB687E
S1132E505B88002B0AD121007B1801221A70FB68C1
S1132E601B687A180621180003F081FAFB681868B9
S1132E70BB6802331A00032100F0A6FCFB68186843
S1132E80BB6802331A00092100F038FD0300180062
S1132E90BD4607B090BDB0B586B000AFF860B9606C
S1132EA07A603B6017243B1905221A70FB681B6883
S1132EB016257A190621180003F0D9F97B191B7815
S1132EC0002B02D03B191B7817E03B6801221A60E3
S1132ED0FB6810331A007B681A60BB689B88FF226A
S1132EE013409AB2FB681A82FB681868FB681033B7
S1132EF01A00162100F002FD03001800BD4606B0BA
S1132F00B0BD90B587B000AFF860B9607A603B603F
S1132F10FB681B6817243A190621180003F0A7F967
S1132F203B191B78002B01D005231DE0BB689B884F
S1132F301B029AB2BB685B88FF210B409BB2134310
S1132F409AB2FB681A82FB681868FB6810331A008F
S1132F50042100F039FCFB681868FB6810331A0080
S1132F600A2100F0CBFC03001800BD4607B090BD59
S1132F70B0B586B000AFF860B9607A603B601724E2
S1132F803B1905221A70FB681B6816257A1906215D
S1132F90180003F06CF97B191B78002B02D03B1945
S1132FA01B7819E0BB689A88FB681A82FB6818686A
S1132FB0FB68103317257C191A00082103F057F910
S1132FC003002370FB6810331A007B681A603B68A7
S1132FD002221A607B191B781800BD4606B0B0BDEA
S1132FE0B0B586B000AFF860B9601900FB1D1A7067
S1132FF0BB1D0A1C1A701723FB1801221A70162114
S11330007B1801221A70FB1D1B78052B24D1BB6889
S11330101B781A00602313400FD0BB681B785BB287
S1133020002B0ADBBB68DB88002B06D0BB1D1B789A
S1133030002B02D17B1800221A701623FB181B7870
S1133040DB01DAB21723FC18FB681100180003F047
S1133050DAF80300237029E0FB6A1B68BA68D28897
S1133060934204D9BB68DB881A00FB6A1A60BB6A06
S11330701A68FB6A1B6817257C19F868002102F09E
S1133080B4FF030023702A00BB181B78002B0DD15A
S1133090BB681B785BB2002B08DABC18F868002305
S11330A00022002102F0BEFF030023701723FB1847
S11330B01B781800BD4606B0B0BD0000B0B5A6B080
S11330C002AFF860B9607A600023FB670023BB6736
S11330D08F23FB1805221A70BB685B68013302D08A
S11330E07B68002B03D18F23FB181B78DCE17B6802
S11330F08822B9180B60BB181B6808338422BA18DD
S113310013607723FA18FB680621180003F0AFF860
S1133110BB681B7A002B00D140E1BB685B68082BBD
S113312003D1BB681B68002B03D18F23FB181B78CA
S1133130BAE1BB681B6880203A1813603B181B680F
S11331405A8884217B181B685A803B181B689A880C
S11331507B181B689A803B181B68DA887B181B68ED
S1133160DA803B181B685A787B181B685A703B1826
S11331701B681A787B181B681A707B181B681B78ED
S11331801A00602313401FD17B181B685B781A0058
S1133190C74B9200D358002B00D1EBE07B181B687F
S11331A05B781A00C24B9200D5588F23FC18782301
S11331B0FB187C22BA187918096888203818006826
S11331C0A84703002370D5E084203B181B68DB88E4
S11331D0002B00D179E03B181B681B785BB2002BF5
S11331E000DA72E03B181B68DB88002B29D03B18FF
S11331F01B681B781A002023134022D064217B18FB
S113320000225A607B1801221A737B183A1812683C
S11332101A603B181B68DB881A007B189A608F239E
S1133220FC180D007A18FB680121180000F0CCFA94
S1133230030023707B199B68BB677B195B68FB6782
S11332402EE084203B181B68DB88002B28D03B1819
S11332501B681B781A004023134021D054217B188B
S113326000225A607B1801221A737B183A181268DC
S11332701A603B181B68DB881A007B189A608F233E
S1133280FC180D007A18FB681321180000F036FBB7
S1133290030023707B199B68BB677B195B68FB6722
S11332A08F217B181B78002B64D1FA6F8423FB18C1
S11332B01B68DB880D007C18F868002102F0B2FE60
S11332C0030023707B191B78EEE084203B181B68F5
S11332D01B781A002023134022D044217B1800229B
S11332E05A607B1801221A737B183A1812681A6004
S11332F03B181B68DB881A007B189A608F23FC1824
S11333000D007A18FB680121180000F05DFA030033
S113331023707B199B68BB677B195B68FB6729E09B
S113332084203B181B681B781A004023134021D0CB
S113333034217B1800225A607B1801221A737B18EF
S11333403A1812681A603B181B68DB881A007B184D
S11333509A608F23FC180D007A18FB68132118005B
S113336000F0CCFA030023707B199B68BB677B19C0
S11333705B68FB678F23FC18FB181A788423FB18FF
S11333801968F8687823FB1801937C23FB180093D1
S11333900023FFF725FE0300237082E07723FB1848
S11333A01B78032B16D184217B181B685B781A00C9
S11333B03F4B9200D5588F23FC187823FB187C22AE
S11333C0BA1879180968882038180068A8470300D3
S11333D0237066E0BB685B68002B62D084203B18D6
S11333E01B68DB88002B5CD03B181B681B785BB226
S11333F0002B56DB3B181B681B781A002023134054
S11334001AD0BB681A6824217B185A607B180022E2
S11334101A737B183A1812681A60BB685A687B18CA
S11334209A608F23FC187A18FB680121180000F0B9
S1133430CBF90300237021E084203B181B681B7820
S11334401A004023134019D0BB681A6814217B1852
S11334505A607B1800221A737B183A1812681A6093
S1133460BB685A687B189A608F23FC187A18FB682B
S11334701321180000F042FA030023708F23FC1874
S1133480FB181A788423FB181968F8687823FB184A
S113349001937C23FB1800930123FFF7A1FD030094
S11334A023708F23FB181B781800BD4624B0B0BDD1
S11334B0048E0000B0B588B000AF786039600C208D
S11334C03B18214A1A603B183A685A6018217B1845
S11334D001221A717B180022DA707B1880229A70FC
S11334E07B1840221A801F257C193A1879187B68AA
S11334F0180002F0B0FD030023707B191B78002B29
S113350002D07B191B781BE018217B1800229A70CB
S11335101F257C190C23FA1879187B68180002F00F
S11335209AFD030023707B191B78002B07D07B685E
S11335308021180002F0FAFD7B191B7800E00023BB
S11335401800BD4608B0B0BDBD30000080B584B0E1
S113355000AF02003960FB1D1A700823FB18180025
S1133560FFF7BBF90023FB601EE02B49FA68130048
S11335709B009B189B005B58002B12D02649FA68CD
S113358013009B009B189B00CB1812331B78FA1D69
S113359012789A4205D1BB681800FFF7ACF90123F1
S11335A036E0FB680133FB60FB68002BDDD00023B1
S11335B0FB6025E01849FA6813009B009B189B00E8
S11335C05B58002B19D11449FA6813009B009B180F
S11335D09B00CB181233FA1D12781A70FA68130084
S11335E09B009B189B000C4A9A183B681A60BB68A6
S11335F01800FFF780F900230AE0FB680133FB6041
S1133600FB68002BD6D0BB681800FFF774F90223BF
S11336101800BD4604B080BDFCF6FF1F80B584B021
S113362000AF0200FB1D1A700023FB600823FB1887
S11336301800FFF752F93AE02349FA6813009B0097
S11336409B189B005B58002B2ED01F49FA6813006F
S11336509B009B189B00CB1812331B78FA1D127821
S11336609A4221D11849FA6813009B009B189B00C9
S113367000225A501449FA6813009B009B189B00BF
S1133680CB18043300221A600F49FA6813009B0018
S11336909B189B00CB18123300221A70BB681800C9
S11336A0FFF729F900230AE0FB680133FB60FB689C
S11336B0002BC1D0BB681800FFF71DF904231800C4
S11336C0BD4604B080BDC046FCF6FF1F80B584B083
S11336D000AF786039600023FB600823FB181800F2
S11336E0FFF7FBF81BE01449FA6813009B009B18D2
S11336F09B005B587A689A420ED1FA6813009B00CB
S11337009B189B000C4A9A183B681A60BB68180007
S1133710FFF7F1F800230AE0FB680133FB60FB6864
S1133720002BE0D0BB681800FFF7E5F8042318006D
S1133730BD4604B080BDC046FCF6FF1F80B584B012
S113374000AF02003960FB1D1A700023FB600823E0
S1133750FB181800FFF7C1F827E01A49FA681300AC
S11337609B009B189B005B58002B1BD01549FA68E3
S113377013009B009B189B00CB1812331B78FA1D77
S113378012789A420ED10F49FA6813009B009B18D5
S11337909B005A583B681A60BB681800FFF7ABF8E7
S11337A000230AE0FB680133FB60FB68002BD4D0E4
S11337B0BB681800FFF79FF804231800BD4604B047
S11337C080BDC046FCF6FF1FF0B587B000AFF860BF
S11337D07A600B23FB180A1C1A701423FB180122AD
S11337E01A701523FB1801221A707B68002B01D173
S11337F004237CE014257C191023FA18FB681100BB
S11338001800FFF763FF030023707B191B78002B5C
S113381001D004236BE01623FB1800221A705BE02E
S11338201723FB1800221A7049E017243B191B7850
S1133830314A1B01D3180C3319783B695B6818684B
S11338401626BB191A7813005B009B189B00C3183B
S11338509B681B7999422CD13B191B78264A1B0182
S1133860D31808331D683B695B681968BB191A785B
S113387013005B009B189B00CB185B6818000B239C
S1133880FB181B781426BC197A681900A847030092
S11338902370BB191B78052B01D1052327E01423C2
S11338A0FB181B78002B10D11523FB1800221A706B
S11338B00BE017217B181A787B1801321A70172332
S11338C0FB181B78012BB0D900E0C04616217B18E9
S11338D01A787B1801321A703B695B681B7A1622CE
S11338E0BA1812789A429BD31523FB181B78180038
S11338F0BD4607B0F0BDC046388E0000B0B586B0F6
S113390000AFF860B9607A6017257B1901221A703C
S11339107C191023FA18FB6811001800FFF7D6FE73
S1133920030023707B191B78002B02D07B191B78B2
S11339301BE0BB68012B0BD13A69FB68110018002E
S1133940FFF7B8FD3A69FB6802211800FFF73CFF56
S11339503B695B685B6817257C197A68B968F86805
S11339609847030023707B191B781800BD4606B0E6
S1133970B0BD0000F0B587B000AFB9607A600F2326
S1133980FB18021C1A701523FB1801221A707B689D
S1133990002B06D0BB68002B03D0BB685B68002BF0
S11339A001D1042397E015257C191023FA180F235D
S11339B0FB181B7811001800FFF7C8FD03002370E3
S11339C07B191B78002B02D07B191B7883E03B69A1
S11339D0BA685A603B691A0015257C1940490F26BC
S11339E0BB191B78180002F005FA030023702C00A1
S11339F03B191B78002B0CD03B691B68180002F0A4
S1133A00D2FABB191B781800FFF708FE3B191B7884
S1133A1061E01623FB1800221A704DE01723FB18EF
S1133A2000221A703DE03B695B68196816203B1858
S1133A301A7813005B009B189B00CB189B681A79BB
S1133A4017243B191B7827491B01CB180C331B780F
S1133A509A4220D13B191A78224B1201D4583B695F
S1133A605B68196805003B181A7813005B009B1803
S1133A709B00C8183B695B6819687B191A781300A6
S1133A805B009B189B00CB181A1D0F23FB181B7897
S1133A9001001800A04717217B181A787B180132FF
S1133AA01A701723FB181B78012BBCD916217B181D
S1133AB01A787B1801321A703B695B681B7A1622EC
S1133AC0BA1812789A42A9D33B691A687B681A60BB
S1133AD01523FB181B781800BD4607B0F0BDC0467F
S1133AE0FD380000388E000080B584B000AF7860E7
S1133AF00023FB6016E00F49FA6813009B009B1833
S1133B009B005B58002B0AD1FA6813009B009B189A
S1133B109B00084A9A187B681A60002306E0FB6839
S1133B200133FB60FB68002BE5D002231800BD467F
S1133B3004B080BD10F7FF1F80B582B000AF78607D
S1133B407B6800221A607B6800225A607B6800222E
S1133B501A737B6800229A7300231800BD4602B0D2
S1133B6080BD90B587B000AFF860B9607A60172364
S1133B70FB1801221A707B683B613B69002B01D161
S1133B80032319E03B6900225A743B695B68002BEC
S1133B900FD03B695B681B68002B0AD03B695B68EC
S1133BA01B6838691722BC18BA68012198470300BA
S1133BB023701723FB181B781800BD4607B090BD6F
S1133BC090B587B000AFF860B9607A601723FB182E
S1133BD001221A707B683B613B69002B01D10323EE
S1133BE019E03B6900229A743B695B68002B0FD093
S1133BF03B695B681B68002B0AD03B695B681B68E8
S1133C0038691722BC18BA68022198470300237048
S1133C101723FB181B781800BD4607B090BD0000A1
S1133C2090B58FB000AF786000237B6333217B189D
S1133C3001221A707B681B7B002B02D17B181B7836
S1133C40CAE07B681A7B7B685B689B685B799A42F5
S1133C5003D93323FB181B78BEE07B685B689B6841
S1133C601B68002B03D13323FB181B78B4E07B685B
S1133C705B689B681A687B681B7B59498C46634464
S1133C80DB00D3183B620023FB624BE03B6A5968BC
S1133C90FA6A13005B009B189B00CB181B78032B5C
S1133CA03DD10023BB6221E03B6A5968FA6A1300E4
S1133CB05B009B189B00CB185A68BB6A1B01D31886
S1133CC01A787B689B7B9A420DD13B6A5968FA6AE1
S1133CD013005B009B189B00CB185A68BB6A1B013E
S1133CE0D3187B630FE0BB6A0133BB623B6A59683C
S1133CF0FA6A13005B009B189B00CB181B7A1A000E
S1133D00BB6A9342D0DB3B6A5968FA6A13005B00D2
S1133D109B189B00CB18DA787B685A7308E0FB6A1F
S1133D200133FB623B6A1B781A00FB6A9342ADDBEA
S1133D307B6B002B03D13323FB181B784CE07B688F
S1133D407A6B9A6000237B623DE018217B18002285
S1133D501A717B6B9A687B6A9B00D3181A787B185C
S1133D609A707B6B9A687B6A9B00D3185A887B187D
S1133D701A807B6B9A687B6A9B00D3185A787B18ED
S1133D80DA707B189B78DB09DBB2012B04D10C239E
S1133D90FB18144A1A6003E00C23FB18124A1A6039
S1133DA00C217B187A685A607B681B683322BC1824
S1133DB07A1818217918180002F04DF903002370BD
S1133DC07B6A01337B627B6B1B791A007B6A9342AB
S1133DD0BBDB3323FB181B781800BD460FB090BD26
S1133DE0FFFFFF1F633B0000C13B000090B585B09F
S1133DF000AF78600F217B1801221A707B689B68E2
S1133E00002B02D17B181B7822E00023BB6012E058
S1133E107B6818687B689B689A68BB689B00D318AA
S1133E201B780F22BC18190002F080F903002370DC
S1133E30BB680133BB607B689B681B791A00BB6855
S1133E409342E5DB7B6800229A600F23FB181B7802
S1133E501800BD4605B090BDF0B58FB000AFF86056
S1133E60B9607A603723FB1801221A707B68002B33
S1133E7002D0FB68002B01D10323F6E1FB68BB628F
S1133E80BB68062B00D1BEE0BB68062B00D9D8E185
S1133E90BB68052B00D185E0BB68052B00D9D0E1B8
S1133EA0BB68042B49D0BB68042B00D9C9E1BB68AB
S1133EB0032B18D0BB68032B00D9C2E1BB68012BCC
S1133EC000D1D1E0BB68022B00D0BAE1BB6A00226A
S1133ED01A73BB6A00225A74BB6A00229A74BB6AC2
S1133EE000229A60BEE17B687B62BB6A5B68002B40
S1133EF000D1A8E17B6A1A78BB6A1B7B9A4200D185
S1133F00A3E1BB6A1B7B002B07D03723FC18BB6AD9
S1133F101800FFF76BFF030023707B6A1A78BB6AF3
S1133F201A73BB6A00229A733723FC18BB6A180001
S1133F30FFF776FE0300237094E1BB6A5B68002BF5
S1133F4000D184E122217B187A6812881A8021200A
S1133F503B187A1812881A70BB6A5A7B7B181B8824
S1133F601B0A9BB2DBB29A4200D072E1BB6A9B7B14
S1133F7005003A1812789A4200D16CE13726BC1930
S1133F80BB6A1800FFF732FF03002370BB6A7A197B
S1133F9012789A73BC19BB6A1800FFF741FE03003C
S1133FA023705FE1BB6A5B68002B00D15AE1BB6AF6
S1133FB09B68002B00D155E17B687B6200233B6347
S1133FC019E07B6A1A78BB6A9B6899683B6B9B0013
S1133FD0CB181B789A420BD1BB6A1A687B6A1B7890
S1133FE037217C181900100002F00DF9030023702A
S1133FF03B6B01333B63BB6A9B681B791A003B6BC9
S11340009342DEDB2EE1BB6A5B68002B00D129E121
S1134010BB6A9B68002B00D124E17B687B62002390
S1134020FB6219E07B6A1A78BB6A9B689968FB6A31
S11340309B00CB181B789A420BD1BB6A1A687B6A27
S11340401B7837217C181900100002F0F6F80300E1
S11340502370FB6A0133FB62BB6A9B681B791A00FD
S1134060FB6A9342DEDBFDE07B68002B00D1F4E0C9
S11340707B68FB61FB691B681B781A001F231340D4
S1134080012B00D0EBE0FB691B689B881A00FF231F
S11340901340BA6A527B934200D0E2E0FB691B688A
S11340A05B780B2B00D1B3E000DDC4E00A2B00D118
S11340B097E000DDBFE0092B52D000DDBBE0032B0D
S11340C03CD000DDB7E0012B02D0022B24D0B2E0BB
S11340D0FB691B685B881B0A9BB2DAB210217B1850
S11340E01A72FB691B685B88DAB27B185A72BB6A66
S11340F05B681B68B86A3722BC180D007A18032164
S11341009847030023707B191A68FB695A607B196E
S11341105A68FB699A6093E0BB6A5B681B68B86A7B
S1134120BA6A0F3237217C180421984703002370A0
S1134130BB6A0F331A00FB695A6081E0BB6A5B6893
S11341401B68B86ABA6A103237217C180421984770
S113415003002370BB6A10331A00FB695A606FE0D6
S1134160FB691B685B881B0A9BB2DAB210217B18BF
S11341701A72FB691B685B88DAB27B185A72FB6996
S11341801B7B002B18D0FB699A687B185A60BB6AAA
S11341905B681B68B86A3722BC180D007A180921BD
S11341A09847030023707B191A68FB695A607B19CE
S11341B05A68FB699A6043E0FB695A6810217B18CE
S11341C01A60FB699A687B185A60BB6A5B681B6853
S11341D0B86A3722BC187A1806219847030023705E
S11341E02EE0FB691B685B881B0A9BB2DAB2BB6AD0
S11341F0DA73BB6A5B681D68B86AFB691B680233C3
S11342003722BC181A000721A8470300237017E0BF
S1134210FB691B685B88DAB2BB6A1A74BB6A5B68A9
S11342201B68B86ABA6A103237217C18082198478B
S11342300300237004E03723FB1805221A70C046DC
S11342400BE0C0460EE0C0460CE0C0460AE0C046A3
S113425008E0C04606E0C04604E0C04602E0C046AE
S113426000E0C0463723FB181B781800BD460FB08A
S1134270F0BDB0B586B000AFB9607A600F23FB180B
S1134280021C1A7017257B1901221A707C1910233D
S1134290FB181800FFF728FC030023707B191B7818
S11342A0002B02D07B191B7829E03B691A001725E3
S11342B07C190F23FB181B7811001800FFF73EFA36
S11342C0030023707B191B78002B02D07B191B7809
S11342D015E03B691B68002B01D103230FE03B6908
S11342E0BA685A603B6900221A733B69FF229A73C9
S11342F03B691A007B681A601723FB181B781800A7
S1134300BD4606B0B0BDB0B584B000AF78600F2331
S1134310FB1801221A707B68BB60BB68002B01D1BB
S113432003230DE00F257C19BB681800FFF75EFD21
S113433003002370BB681800FFF7FEFB7B191B7892
S11343401800BD4604B0B0BDF0B587B000AFF8604A
S11343507A603B600B23FB180A1C1A701723FB18A6
S113436001221A70FB68002B01D103231FE0FB68B4
S11343703B613B695B7C002B01D0022317E03B6966
S113438018681726BC193D687A680B23FB1819783E
S11343902B0001F02AFE03002370BB191B78002BAD
S11343A002D13B6901225A741723FB181B781800A9
S11343B0BD4607B0F0BD000080B582B000AF02007A
S11343C0FB1D1A70FB1D1B781A001F231A40044B97
S11343D0012191400A001A60C046BD4602B080BD6A
S11343E000E100E090B583B000AF02003960FB1D2E
S11343F01A70FB1D1B787F2B32D92F4AFB1D1B78AB
S113440019000F230B40083B9B0806339B00D3186D
S113441004331B68FA1D1278110003220A40D200EB
S1134420FF2191400A00D2431A4011003B689B01CE
S1134430FF221A40FB1D1B78180003230340DB00F6
S11344409A401D48FB1D1B781C000F232340083B8A
S11344509B080A4306339B00C31804331A6027E001
S1134460164AFB1D1B785BB29B08C0339B009B580C
S1134470FA1D1278110003220A40D200FF21914054
S11344800A00D2431A4011003B689B01FF221A40E4
S1134490FB1D1B78180003230340DB009A400748E8
S11344A0FB1D1B785BB29B080A43C0339B001A5068
S11344B0C046BD4603B090BD00ED00E000E100E061
S11344C080B582B000AF0200FB1D1A70FB1D1B7883
S11344D05BB2803306D0FB1D1B785BB21800FFF77C
S11344E06BFF00E0C046BD4602B080BD80B582B01F
S11344F000AF786039607B681A693B68DA40130062
S1134500012213401800BD4602B080BD80B582B0C0
S113451000AF78607B681B68024A13401800BD46F0
S113452002B080BD0400008080B582B000AF786026
S11345300A00FB1C1A70FB1C1B78002B08D07B683C
S11345401B68084A134080221A437B681A6005E0FE
S11345507B681B68034A1A407B681A60C046BD46E4
S113456002B080BD7BFFFF7F80B582B000AF786072
S11345707B685B688022D2031A437B685A60C0461A
S1134580BD4602B080BD000080B582B000AF786047
S11345900A00FB1C1A70FB1C1B780F2B05D90A4B55
S11345A00A4A0B490B4802F053FD7B685B681B0108
S11345B01A09FB1C1B781B071A437B685A60C04608
S11345C0BD4602B080BDC046888700005C8E0000F6
S11345D005020000B087000080B582B000AF7860AB
S11345E07B685B689BB21800BD4602B080BD0000CA
S11345F080B584B000AFB9607A600F217B18021CCB
S11346001A70124B1A78124B1A71114B01225A71FB
S11346107B181A780E4B9A600D4B01221A730C4BBF
S1134620BA681A610A4B7A685A61094B00221A6007
S1134630074B084A1900100003F0A0FA03005A427D
S11346405341DBB21800BD4604B080BD38F7FF1FEC
S11346503CF7FF1F0060064080B584B000AF020045
S1134660FB1D1A70BB1D0A1C1A700C217B18BA1D85
S113467012781A70124B1A78124B1A71114B0022CD
S11346805A71FB1D1A780F4B9A600E4B01221A7354
S11346900C4B7A181A610B4B01225A61094B002208
S11346A01A60084B084A1900100003F067FA030067
S11346B05A425341DBB21800BD4604B080BDC04627
S11346C038F7FF1F3CF7FF1F0060064090B58BB022
S11346D000AF18243B19180002F0D0FF3B19324AEE
S11346E05A60022002F000F902003B192F48190019
S11346F002F040FF00237B621AE0FB1D00221A70C7
S11347002B4A7B6AD3181A782A4B1A70FB1D012294
S113471019000D20FFF76CFF031E03D0FB1D1B784F
S1134720C72B09D0234B00221A707B6A01337B62AA
S11347307B6A032BE1D900E0C0461E4B1B78002B9B
S11347400BD000212A20FFF787FF01210E20FFF75D
S113475083FF0D212A20FFF77FFF14217B180022FD
S11347601A707B1800225A707B1813481A00032110
S113477002F00AFE08243B19180003F0BFFD3B19A0
S11347800E4A1900100003F0E7FC0C4B012118003D
S1134790FFF7CAFE0A4B094A1900100003F0CEFDC8
S11347A0C046BD460BB090BDA08601000060064027
S11347B0588E000038F7FF1F80F00F40005004406F
S11347C054F7FF1F80B584B000AF0200FB1D1A70C0
S11347D01D4B1B78002B0ED00C23F918FB1D1B78E6
S11347E002221800FFF704FF03001A0001235340BC
S11347F0DBB2002B01D0002322E00C22BB181B7873
S11348001B029BB2BA18527813439BB21BB20E22FE
S1134810BA18002B00DA03339B1013800E23FB1805
S113482000229A5E13001B019B1A9B009B18DB005D
S11348301A00FA2399001000FBF734FF03001BB29F
S11348401800BD4604B080BD38F7FF1F80B584B0A2
S113485000AF0200BB1D1A80BB1D00229A5E13002C
S1134860DB019B1AFA2291001800FBF71BFF0300DF
S1134870FB60FB687F2B01DD7F23FB60FB687F33DC
S113488002DA7F235B42FB60FB685BB21800BD4623
S113489004B080BD90B583B000AF184B0921180057
S11348A0FFF772FE154B1800FFF75EFEC046134B70
S11348B01800FFF72BFE030004221340F7D0BC1DA1
S11348C00E4B1800FFF788FE030023800B4B0421D6
S11348D0180003F0FBFDBB1D1B88094A528A9B1A72
S11348E03B6001231A1C3B68642B01DC00231A1C67
S11348F0D3B21800BD4603B090BDC046005004407A
S113490054F7FF1F90B583B000AFBC1D0120FFF723
S113491059FF030023803C1D0320FFF753FF0300CE
S11349202380244B03211800FFF7E0FD0200FB1C49
S113493051424A411A70BC1CFFF7ACFF03002370BC
S1134940BB1D00229B5E1800FFF780FF03001A00C6
S1134950194B9B68D2B21A703B1D00229B5E180053
S1134960FFF774FF03001A00134B9B680133D2B2A4
S11349701A70FB1C1B78002B01D0012100E00021E0
S1134980BB1C1B78002B01D0022200E000220A4B42
S11349909B6802330A43D2B21A70074B5868064B1D
S11349A09A6803230121FFF7CFFC03001800BD46DA
S11349B003B090BD80F00F4028F7FF1F90B587B07B
S11349C000AFF860B9607A601723FB1801221A70EF
S11349D07B683B61BB68092B31D0BB68092B33D89A
S11349E0BB68082B30D8BB68072B2FD2BB68062BBB
S11349F025D0BB68062B27D8BB68052B24D8BB68F9
S1134A00042B23D2BB68012B03D0BB68032B16D025
S1134A101AE0134BDB7B002B1AD03B69002B07D029
S1134A203B695B68013303D11723FB181B7813E040
S1134A301723FC18FFF766FF0300237008E0172311
S1134A40FB1805221A7004E0C04602E0C04600E0EC
S1134A50C0461723FB181B781800BD4607B090BD4D
S1134A6028F7FF1F90B589B000AFF860B9607A608D
S1134A701F23FB1801221A707B68BB617B687B6172
S1134A80BB68162B00D19EE0BB68162B00D915E13C
S1134A90BB68152B00D189E0BB68152B00D90DE14B
S1134AA0BB68102B00D1FBE0BB68102B00D905E1DB
S1134AB0BB680F2B00D1E5E0BB680F2B00D9FDE0EC
S1134AC0BB680E2B00D1CFE0BB680E2B00D9F5E0FC
S1134AD0BB680D2B00D1B9E0BB680D2B00D9EDE00C
S1134AE0BB680C2B00D1A3E0BB680C2B00D9E5E01C
S1134AF0BB680B2B00D18DE0BB680B2B00D9DDE02C
S1134B00BB680A2B29D0BB680A2B00D9D6E0BB6846
S1134B10012B03D0BB68092B08D0CFE0754B0022D2
S1134B20DA731F23FB1800221A70DCE07B68002B69
S1134B3000D1C5E06F4B0122DA737B691A786D4BA3
S1134B401A737B691B78012B00D0B9E01F23FC1872
S1134B50FFF7D8FE03002370B2E0664BDB7B002B2B
S1134B6000D1AFE0BB691B881B0A9AB212217B18E3
S1134B701A70BB691A8811203B181A707B181B78AD
S1134B80002B00D09EE07B181B785A4AD3183A18A1
S1134B9012785A733B181B78002B00D092E01F2325
S1134BA0FC18FFF7AFFE030023708BE07B68002B3B
S1134BB000D189E04F4B1A7B7B691A701F23FB18C5
S1134BC000221A7080E07B68002B00D17EE0BB6974
S1134BD01B881B0A9AB213217B181A707B181B7846
S1134BE0002B12D1BB691B88FF2293439BB27A1816
S1134BF0127840498A18527B13439AB2BB691A80CF
S1134C001F23FB1800221A7060E01F23FB180522E3
S1134C101A705BE07B68002B5AD01F23FC187A685B
S1134C20FB681100180000F0DFF8030023704FE068
S1134C307B68002B4ED01F23FC187A68FB68110098
S1134C40180000F0E3F80300237043E07B68002BB6
S1134C5042D01F23FC187A68FB681100180000F08A
S1134C60EDF80300237037E07B68002B36D01F2358
S1134C70FC187A68FB681100180000F053F903006F
S1134C8023702BE07B68002B2AD01F23FC187A6842
S1134C90FB681100180000F05DF9030023701FE0A9
S1134CA07B68002B1ED01F23FC187A68FB68110058
S1134CB0180000F067F90300237013E0C04612E007
S1134CC0C04610E0C0460EE0C0460CE0C0460AE014
S1134CD0C04608E0C04606E0C04604E0C04602E024
S1134CE0C04600E0C0461F23FB181B781800BD46D1
S1134CF009B090BD28F7FF1F80B500AF034B1B68B8
S1134D001800FDF7DEF8C046BD4680BD28F7FF1F3A
S1134D1080B582B000AF3B1D274A12781A70FB1D84
S1134D203A1D12781A7000F055F9052001F0DCFDE7
S1134D300200A023DB021100180001F085FE1F4BC6
S1134D4000229A731D4B0022DA731C4B00225A6016
S1134D501A4B00221A60194B194A9A60FFF7B6FCE5
S1134D60164A184B19000020FEF704FE031E04D057
S1134D70154B180000F04EFB1AE0144B180000F01D
S1134D8049FB104B1B685A680C4B5A60FB1D1B787F
S1134D905BB203211800FFF725FBFB1D1B785BB2F8
S1134DA01800FFF78DFB054B1B68180001F0ECF8A9
S1134DB0BD4602B080BDC046AC88000028F7FF1F86
S1134DC024F7FF1F0CF0FF1F708800008C88000080
S1134DD080B500AF02F050FA02F0BEF902F068F9B3
S1134DE0FFF796FFC046FDE780B582B000AF78605C
S1134DF039603B68044A1A603B6812225A600023F7
S1134E001800BD4602B080BD48F0FF1F80B582B0D7
S1134E1000AF786039603B681B7A002B07D13B6890
S1134E20054A1A603B6822225A60002300E00523E9
S1134E301800BD4602B080BD5CF0FF1F90B585B080
S1134E4000AF786039603B689B7A002B08D1344B03
S1134E501A683B681A60324B5A683B685A6059E0DA
S1134E600F23FB1800221A700E23FB1803221A705A
S1134E701EE03B6819892A4B98680F23FB181A789F
S1134E8013005B009B189B00C3181B89994209D12E
S1134E903B689B7A022B11D80E23FB183A68927A4E
S1134EA01A700BE00F217B181A787B1801321A70E4
S1134EB00F23FB181B78002BDBD000E0C0460E2329
S1134EC0FB181B78032B01D1052324E0144B9968AC
S1134ED00F203B181A7813005B009B189B00CB181B
S1134EE01A680E243B191B789B00D3181A683B6878
S1134EF01A600B4B99683B181A7813005B009B18D7
S1134F009B00CB185A683B191B789B00D3181A686E
S1134F103B685A6000231800BD4605B090BDC046EA
S1134F2028F1FF1F80B582B000AF786039603B681C
S1134F301B7A002B07D13B68054A1A603B6809229B
S1134F405A60002300E005231800BD4602B080BD6E
S1134F506EF0FF1F80B582B000AF786039603B68A7
S1134F601B7A002B07D13B68054A1A603B68322242
S1134F705A60002300E005231800BD4602B080BD3E
S1134F8080F0FF1F80B582B000AF786039600523E0
S1134F901800BD4602B080BD80B500AF0B4B9B78B6
S1134FA0DBB21A000823134007D0084B9B78DBB20E
S1134FB0064A08210B43DBB29370054A88235B0140
S1134FC00021D150C046BD4680BDC04600D0074038
S1134FD00070044080B582B000AF894B1B78DBB20F
S1134FE01A00C023134000D0C3E0854B5B79DBB2C9
S1134FF01A004023134000D099E0814B1B78DBB2A8
S11350001A00042313403AD17E4B7B607C4B5B78BF
S1135010DBB21A00302313401ED0794B1B78DBB26D
S11350201A0038231340302B06D0382B09D1BB1C6F
S1135030C022D2001A8019E0BB1CA022D2001A8020
S113504014E06F4B1B78DBB2DB08072213402022ED
S11350509A40BB1C1A8009E0694B1B78DBB2DB0861
S11350600722134001229A40BB1C1A80BB1C1B88D8
S113507019007868FBF78CFA03007B6002E0802358
S11350801B027B605E4BDB78DBB21A00E02313402B
S1135090E02B47D000D99DE0C02B3ED000D999E049
S11350A0A02B34D000D995E0802B2AD000D991E0F0
S11350B0602B1FD000D98DE0402B14D000D989E09B
S11350C0002B02D0202B07D084E07A6813009B00C9
S11350D09B18DB017B607EE07A6813009B009B18C1
S11350E01B027B6077E07A6813001B019B1ADB01CB
S11350F07B6070E07A6813009B009B185B027B6006
S113510069E07B68B722920053437B6063E07B686D
S1135110B722D20053437B605DE07B683A4A534335
S11351207B6058E07B68394A53437B6053E0344BDF
S11351301B79DBB21A001F2313409AB2BB1C013245
S11351401A80BB1C1B8819002E48FBF721FA0300A8
S11351507B602B4B5B79DBB21A001F2313409AB29E
S1135160BB1C18321A80BB1C1A887B6853437B60B3
S113517031E0234B1B78DBB21A00C0231340402BD1
S11351801DD11F4B5B78DBB21A000123134003D1FE
S113519080231B027B601EE0194B1B7ADBB25B0889
S11351A00722134001229A40BB1C1A80BB1C1B8897
S11351B019001748FBF7ECF903007B600BE0104B78
S11351C01B78DBB21A00C0231340802B13D10D4B84
S11351D07B6000E0C0460F4A0F4BD3581B0F0F22D1
S11351E01340013319007868FBF7D2F903001A0061
S11351F00A4B1A6000E0C046BD4602B080BDC046FE
S11352000040064000127A0095080000710B00006F
S113521000093D00007004404410000038F1FF1FF5
S113522080B582B000AF78600A00FB1C1A70FB1CCA
S11352301B78002B08D07B68DB78DBB20822134391
S1135240DAB27B68DA7007E07B68DB78DBB20822CD
S11352509343DAB27B68DA70C046BD4602B080BDC3
S113526080B582B000AF78600A00FB1C1A70FB1C8A
S11352701B78002B08D07B68DB78DBB20422134355
S1135280DAB27B68DA7007E07B68DB78DBB2042291
S11352909343DAB27B68DA70C046BD4602B080BD83
S11352A080B582B000AF78600A00FB1C1A70FB1C4A
S11352B01B78002B08D07B68DB78DBB20822134311
S11352C0DAB27B68DA7007E07B68DB78DBB208224D
S11352D09343DAB27B68DA70C046BD4602B080BD43
S11352E080B582B000AF78600A00FB1C1A70FB1C0A
S11352F01B78002B08D07B68DB78DBB204221343D5
S1135300DAB27B68DA7007E07B68DB78DBB2042210
S11353109343DAB27B68DA70C046BD4602B080BD02
S113532090B589B000AFF860B9603B60FB1D1A709E
S1135330334B1B78002B01D001235CE0304BFA1D6A
S113534012781A70FB1D1B78062B05D050DC012B3C
S113535002D0032B26D04BE0FA68294B5A6018245C
S11353603B191800FDF7CAF921007B18BA681A60C6
S1135370234B5B683A6879181800FDF7C7F8204B8F
S11353805B6801211800FFF74BFF1D4B5B6801218F
S11353901800FFF765FF1A4B1A4A9A60184B1A4A0D
S11353A0DA6027E0FA68164B5A6010243B1918009B
S11353B0FCF734FF21007B18BA681A60104B5B6855
S11353C03A6879181800FCF7F5FD0D4B5B6801216C
S11353D01800FFF765FF0A4B5B6801211800FFF70F
S11353E07FFF074B094A9A60054B094ADA6001E0DE
S11353F0042300E000231800BD4609B090BDC04658
S113540074F7FF1F73270000B12700002923000051
S1135410852300000FB480B582B000AF0C4B1B781D
S1135420002B02D101235B420BE01423FB183B60E9
S11354303A683969074B180000F0D6F803007B601E
S11354407B681800BD4602B080BC08BC04B0184795
S113545074F7FF1F5954000090B583B000AF786013
S1135460094B1B78002B02D101235B4208E0064B59
S11354709C68054B5B68391D01221800A047012375
S11354801800BD4603B090BD74F7FF1F80B586B009
S113549000AFB9607A603B600F23FB18021C1A70DE
S11354A0BB687B610DE00F23FB181A783B6A100080
S11354B098473B681B685A1C3B681A607B69013338
S11354C07B617A697B689A42EDDBC046C046BD4683
S11354D006B080BD80B58CB000AFF860B9607A606A
S11354E03B600023FB61FB68BB61BB695A1CBA616A
S11354F000221A707B68002B35D0BB681B68FB62E6
S1135500FB6A002B2BD1BB6930221A70FB69013373
S1135510FB61FB6964E03968F86AFBF7C3F80300D0
S11355203B613B693A685343FA6AD31ABB62BB6A6C
S1135530002B06DABB6A3B623B6A3022D31ABB6299
S113554002E0BB6A3033BB623B69FB62BB695A1C35
S1135550BA61BA6AD2B21A70FB690133FB61FB6AA1
S1135560002BD8D13BE0BB681B687B627B6A002BB5
S113557032D1BB6930221A70FB690133FB61FB69CC
S11355802EE03B681900786AFBF702F803007B61A0
S11355903B687A6953437A6AD31A3B623B6A092BA4
S11355A003D83B6A30333B620BE03823FB181B788B
S11355B0002B01D0412300E061233A6A9B180A3B87
S11355C03B627B697B62BB695A1CBA613A6AD2B29C
S11355D01A70FB690133FB617B6A002BD1D1FB6933
S11355E01800BD460CB080BD90B59DB002AFF86008
S11355F0B9607A6000233B660023FB650023BB612E
S11356004A23FB1800221A7000233B61BB687B66A7
S11356107BE17B6C252B07D07A6CFB6810009847E4
S1135620BB690133BB616DE14B23FB1801221A7086
S113563000237B650023BB651BE07B6E01337B6627
S11356407B6E1B787B647B6C2F2B0DDD7B6C392B85
S11356500ADC7A6D13009B009B185B001A007B6CBC
S1135660D318303B7B6504E07B6E013B7B660123F2
S1135670BB65BB6D002BE0D006233B657B6E01331D
S11356807B667B6E1B782E2B24D100233B65002385
S1135690BB651BE07B6E01337B667B6E1B787B6492
S11356A07B6C2F2B0DDD7B6C392B0ADC3A6D1300E0
S11356B09B009B185B001A007B6CD318303B3B6546
S11356C004E07B6E013B7B660123BB65BB6D002B55
S11356D0E0D002E07B6E013B7B667B6E01337B6630
S11356E07B6E1B787B647B6C642B1BD07B6C692B7F
S11356F018D07B6C662B15D07B6C462B12D07B6C40
S1135700782B0FD07B6C582B0CD07B6C6F2B09D073
S11357107B6C622B06D07B6C702B03D07B6C752B5F
S113572000D0ABE07B6C642B02D07B6C692B16D170
S11357307B681A1D7A601B687B611423F9181C248A
S113574038194B23FB181B7800930A230122FFF717
S1135750C1FE0300FB653A19FB6DD3183B667B6CF5
S1135760582B02D07B6C782B1DD17B6C782B03D10A
S11357704B23FB1800221A707B681A1D7A601B6881
S11357803B611023F9181C2438194B23FB181B7890
S1135790009310230022FFF79DFE0300FB653A19D6
S11357A0FB6DD3183B667B6C6F2B08D07B6C622B34
S11357B005D07B6C702B02D07B6C752B40D17B6841
S11357C01A1D7A601B683B617B6C752B1DD07B6C4A
S11357D0752B1FDC7B6C702B12D07B6C702B19DC4F
S11357E07B6C622B07D07B6C6F2B13D14A23FB1885
S11357F008221A700FE04A23FB1802221A700AE0EA
S11358004A23FB1810221A7005E04A23FB180A22C7
S11358101A7000E0C0464A23FB181A781023F918BE
S11358201C2438194B23FB181B7800931300002207
S1135830FFF750FE0300FB653A19FB6DD3183B6676
S11358407A6D1823F818F96DFB6800930300202083
S1135850FFF71CFE3B6E002B54D00AE03B6E5A1E31
S11358603A661B781A00FB6810009847BB6901333D
S1135870BB613B6E1B78002BF0D143E07B6C632B48
S11358800DD17B681A1D7A601B68DBB23B643A6CED
S1135890FB6810009847BB690133BB6132E07B6C45
S11358A0732B28D17B681A1D7A601B68FB64FB6C20
S11358B0002B27D0FB6C1800FAF762FE0300FB658F
S11358C07A6D1823F818F96DFB6800930300202003
S11358D0FFF7DCFD0AE0FB6C5A1CFA641B781A0023
S11358E0FB6810009847BB690133BB61FB6C1B78F4
S11358F0002BF0D106E07A6CFB6810009847BB6976
S11359000133BB617B6E01337B667B6E1B787B64EA
S11359107B6C002B00D07CE6BB691800BD461BB035
S113592090BD000080B584B000AF02003960FB1D5B
S11359301A700823FB181800FCF7CFFF0023FB6044
S11359401FE02C49FA681300DB009B1A1B015B580B
S1135950002B13D02749FA686D201300DB009B1A33
S11359601B01CB181B181B78FA1D12789A4205D11B
S1135970BB681800FCF7BFFF012337E0FB68013365
S1135980FB60FB68002BDCD00023FB6026E0194998
S1135990FA681300DB009B1A1B015B58002B1AD119
S11359A01449FA686D201300DB009B1A1B01CB1805
S11359B01B18FA1D12781A70FA681300DB009B1A80
S11359C01B010C4A9A183B681A60BB681800FCF764
S11359D092FF00230AE0FB680133FB60FB68002BA5
S11359E0D5D0BB681800FCF786FF02231800BD461B
S11359F004B080BD84F7FF1F80B584B000AF786029
S1135A000C23FB181800FCF768FF7B6800221A605F
S1135A107B686D2200219954FB681800FCF76BFF2A
S1135A2000231800BD4604B080BD000080B584B0DA
S1135A3000AF02003960FB1D1A700F217B1806228B
S1135A401A70FB1D1B78012B06D83B68064A1A60A6
S1135A507B1800221A7000E0C0460F23FB181B7845
S1135A601800BD4604B080BD7C8E0000F0B589B03E
S1135A7000AFF8607A603B600B203B180A1C1A7078
S1135A80FB68BB611F23FB1801221A701723FB1844
S1135A903A1812780F210A401A701623FB183A1884
S1135AA01278D2091A70BB69002B01D103235CE080
S1135AB0BB695B68002B51D01723FB181B78DB18DC
S1135AC0DAB21623FB181B781343DBB21900BA6948
S1135AD00B005B005B189B00D31814331B78002B5E
S1135AE001D0022341E01723FB181B78DB18DAB23C
S1135AF01623FB181B781343DBB21900BA690B0099
S1135B005B005B189B00D318143301221A700B211D
S1135B107B181B785BB2002B0FDABB695B689D684E
S1135B20BB6918681F23FC183E687A687B181978CB
S1135B303300A8470300237014E0BB695B68DD6889
S1135B40BB6918681F23FC183E687A680B23FB188E
S1135B5019783300A8470300237003E01F23FB18C0
S1135B6006221A701F23FB181B781800BD4609B0C3
S1135B70F0BDB0B586B000AFF8607A600B23FB18B7
S1135B800A1C1A70FB683B611723FB1801221A7068
S1135B903B69002B01D103231AE03B695B68002BAE
S1135BA00FD03B695B685D693B6918681723FC1873
S1135BB07A680B23FB181B781900A847030023708D
S1135BC003E01723FB1806221A701723FB181B780F
S1135BD01800BD4606B0B0BD80B584B000AF786093
S1135BE039607B686F22012199547B6800220E2161
S1135BF01800FFF7BEFF7B686E22022199547B6870
S1135C006C22002199540023FB6020E07968FA6833
S1135C1013005B009B189B00CB180C3300221A6006
S1135C207968FA6813005B009B189B00CB1810334B
S1135C3000221A607968FA6813005B009B189B00C5
S1135C40CB18143300221A70FB680133FB60FB6825
S1135C50072BDBD97B689B68786800220121984771
S1135C607B686F220021995400231800BD4604B0BC
S1135C7080BDB0B586B000AF786039603B681A7AF1
S1135C801623FB180F210A401A703B681A7A152351
S1135C90FB18D2091A7017217B1801221A703B686D
S1135CA01B7A102B09D17C183A687B681100180004
S1135CB0FFF792FF0300237073E01622BB181B78D2
S1135CC0032B6DD8BB181B78DB18DAB21523FB182D
S1135CD01B781343DBB219007A680B005B005B1876
S1135CE09B00D3180C331B68002B59D03B681A68EF
S1135CF008217B181A603B685A687B185A603B6815
S1135D005A7A7B181A723B685B7A002B07D07B683F
S1135D1000221A757B6820220021995413E016236F
S1135D20FB181B78DB18DAB21523FB181B78134316
S1135D30DBB219007A680B005B005B189B00D31878
S1135D40143300221A7016203B181B78DB18DAB2C1
S1135D5015243B191B781343DBB219007A680B0036
S1135D605B005B189B00D3180C331D683B181B7831
S1135D70DB18DAB23B191B781343DBB219007A68DB
S1135D800B005B005B189B00D31810331A681723B1
S1135D90FC180823F9187B681800A847030023702F
S1135DA0C0461723FB181B781800BD4606B0B0BDCB
S1135DB080B584B000AF786039607B68FB603B6875
S1135DC0BB603B68002B02D07B68002B01D103230E
S1135DD00CE0FB689B68002B01D1012306E0BA6844
S1135DE0FB6811001800FFF744FF03001800BD46CC
S1135DF004B080BDF0B589B000AFB9607A600F23FC
S1135E00FB18021C1A7000237B617B68002B01D1F4
S1135E100323B5E01B257C191423FA180F23FB1860
S1135E201B7811001800FFF77DFD030023707B1918
S1135E301B78002B02D07B191B78A1E07B69BA6820
S1135E409A607B690F22BA186D2112785A547B69C3
S1135E506C22002199547B696F22002199540023FC
S1135E60FB6120E07969FA6913005B009B189B00D1
S1135E70CB180C3300221A607969FA6913005B00AD
S1135E809B189B00CB18103300221A607969FA69B9
S1135E9013005B009B189B00CB18143300221A706C
S1135EA0FB690133FB61FB69072BDBD97B691A1D95
S1135EB01B257C190F23FB181B7811001800FFF712
S1135EC0B5FD030023707B191B78002B06D07B697A
S1135ED01800FFF791FD7B191B7851E07B695B6823
S1135EE0002B05D17B691800FFF786FD062347E0E8
S1135EF07B695B681B68002B18D07B695B685B68F7
S1135F00002B13D07B695B689B68002B0ED07B69E8
S1135F105B68DB68002B09D07B695B681B69002B1D
S1135F2004D07B695B685B69002B05D17B69180031
S1135F30FFF762FD072323E07B695B681B687969CF
S1135F407A6915001B26BC190F22BA1810782A008A
S1135F50984703002370BB191B78002B06D07B697C
S1135F60180000F020F8BB191B7809E07B696E2249
S1135F70022199547A697B681A601B23FB181B78E9
S1135F801800BD4609B0F0BD80B582B000AF78609E
S1135F907B68002200211800FFF7EBFD03001800C6
S1135FA0BD4602B080BD80B584B000AF78607B6828
S1135FB0FB60FB68002B01D1032312E0FB685B68E4
S1135FC0002B09D0FB685B685A68FB681B681800E3
S1135FD09047FB6800225A60FB681800FFF70CFD2D
S1135FE000231800BD4604B080BD80B584B000AF66
S1135FF0F8607A603B600B203B180A1C1A703B184F
S11360001B780F221340DBB2802252421343D9B2D1
S11360103B687A68F868FFF729FD03001800BD465D
S113602004B080BD80B584B000AFF8607A603B6096
